{"abi":[{"type":"constructor","inputs":[{"name":"tokens","type":"address[]","internalType":"address[]"}],"stateMutability":"nonpayable"},{"type":"function","name":"collections","inputs":[{"name":"","type":"uint256","internalType":"uint256"}],"outputs":[{"name":"token","type":"address","internalType":"address"}],"stateMutability":"view"},{"type":"function","name":"computeLeaf","inputs":[{"name":"account","type":"address","internalType":"address"}],"outputs":[{"name":"","type":"uint256","internalType":"uint256"}],"stateMutability":"view"},{"type":"function","name":"delegate","inputs":[{"name":"to","type":"address","internalType":"address"},{"name":"nftIndex","type":"uint256","internalType":"uint256"},{"name":"ids","type":"uint256[]","internalType":"uint256[]"},{"name":"toProof","type":"uint256[]","internalType":"uint256[]"},{"name":"fromProofs","type":"tuple[]","internalType":"struct DavinciDao.ProofInput[]","components":[{"name":"account","type":"address","internalType":"address"},{"name":"siblings","type":"uint256[]","internalType":"uint256[]"}]}],"outputs":[],"stateMutability":"nonpayable"},{"type":"function","name":"getCensusRoot","inputs":[],"outputs":[{"name":"","type":"uint256","internalType":"uint256"}],"stateMutability":"view"},{"type":"function","name":"getDelegations","inputs":[{"name":"account","type":"address","internalType":"address"}],"outputs":[{"name":"weight","type":"uint88","internalType":"uint88"},{"name":"leaf","type":"uint256","internalType":"uint256"}],"stateMutability":"view"},{"type":"function","name":"getNFTids","inputs":[{"name":"nftIndex","type":"uint256","internalType":"uint256"},{"name":"candidateIds","type":"uint256[]","internalType":"uint256[]"}],"outputs":[{"name":"","type":"uint256[]","internalType":"uint256[]"}],"stateMutability":"view"},{"type":"function","name":"getRootBlockNumber","inputs":[{"name":"root","type":"uint256","internalType":"uint256"}],"outputs":[{"name":"","type":"uint256","internalType":"uint256"}],"stateMutability":"view"},{"type":"function","name":"getTokenDelegations","inputs":[{"name":"nftIndex","type":"uint256","internalType":"uint256"},{"name":"ids","type":"uint256[]","internalType":"uint256[]"}],"outputs":[{"name":"delegates","type":"address[]","internalType":"address[]"}],"stateMutability":"view"},{"type":"function","name":"rootBlockNumbers","inputs":[{"name":"","type":"uint256","internalType":"uint256"}],"outputs":[{"name":"","type":"uint256","internalType":"uint256"}],"stateMutability":"view"},{"type":"function","name":"tokenDelegate","inputs":[{"name":"","type":"bytes32","internalType":"bytes32"}],"outputs":[{"name":"","type":"address","internalType":"address"}],"stateMutability":"view"},{"type":"function","name":"undelegate","inputs":[{"name":"nftIndex","type":"uint256","internalType":"uint256"},{"name":"ids","type":"uint256[]","internalType":"uint256[]"},{"name":"proofs","type":"tuple[]","internalType":"struct DavinciDao.ProofInput[]","components":[{"name":"account","type":"address","internalType":"address"},{"name":"siblings","type":"uint256[]","internalType":"uint256[]"}]}],"outputs":[],"stateMutability":"nonpayable"},{"type":"function","name":"updateDelegation","inputs":[{"name":"to","type":"address","internalType":"address"},{"name":"nftIndex","type":"uint256","internalType":"uint256"},{"name":"ids","type":"uint256[]","internalType":"uint256[]"},{"name":"fromProofs","type":"tuple[]","internalType":"struct DavinciDao.ProofInput[]","components":[{"name":"account","type":"address","internalType":"address"},{"name":"siblings","type":"uint256[]","internalType":"uint256[]"}]},{"name":"toProof","type":"uint256[]","internalType":"uint256[]"}],"outputs":[],"stateMutability":"nonpayable"},{"type":"function","name":"weightOf","inputs":[{"name":"","type":"address","internalType":"address"}],"outputs":[{"name":"","type":"uint88","internalType":"uint88"}],"stateMutability":"view"},{"type":"event","name":"CensusRootUpdated","inputs":[{"name":"newRoot","type":"uint256","indexed":true,"internalType":"uint256"},{"name":"blockNumber","type":"uint256","indexed":false,"internalType":"uint256"}],"anonymous":false},{"type":"event","name":"Delegated","inputs":[{"name":"owner","type":"address","indexed":true,"internalType":"address"},{"name":"to","type":"address","indexed":true,"internalType":"address"},{"name":"nftIndex","type":"uint256","indexed":true,"internalType":"uint256"},{"name":"tokenId","type":"uint256","indexed":false,"internalType":"uint256"}],"anonymous":false},{"type":"event","name":"DelegatedBatch","inputs":[{"name":"owner","type":"address","indexed":true,"internalType":"address"},{"name":"to","type":"address","indexed":true,"internalType":"address"},{"name":"nftIndex","type":"uint256","indexed":true,"internalType":"uint256"},{"name":"tokenIds","type":"uint256[]","indexed":false,"internalType":"uint256[]"}],"anonymous":false},{"type":"event","name":"Undelegated","inputs":[{"name":"owner","type":"address","indexed":true,"internalType":"address"},{"name":"from","type":"address","indexed":true,"internalType":"address"},{"name":"nftIndex","type":"uint256","indexed":true,"internalType":"uint256"},{"name":"tokenId","type":"uint256","indexed":false,"internalType":"uint256"}],"anonymous":false},{"type":"event","name":"UndelegatedBatch","inputs":[{"name":"owner","type":"address","indexed":true,"internalType":"address"},{"name":"from","type":"address","indexed":true,"internalType":"address"},{"name":"nftIndex","type":"uint256","indexed":true,"internalType":"uint256"},{"name":"tokenIds","type":"uint256[]","indexed":false,"internalType":"uint256[]"}],"anonymous":false},{"type":"event","name":"WeightChanged","inputs":[{"name":"account","type":"address","indexed":true,"internalType":"address"},{"name":"previousWeight","type":"uint88","indexed":false,"internalType":"uint88"},{"name":"newWeight","type":"uint88","indexed":false,"internalType":"uint88"}],"anonymous":false},{"type":"error","name":"AlreadyDelegated","inputs":[{"name":"tokenId","type":"uint256","internalType":"uint256"}]},{"type":"error","name":"InvalidCollection","inputs":[]},{"type":"error","name":"InvalidTokenId","inputs":[{"name":"tokenId","type":"uint256","internalType":"uint256"}]},{"type":"error","name":"LeafAlreadyExists","inputs":[]},{"type":"error","name":"LeafCannotBeZero","inputs":[]},{"type":"error","name":"LeafDoesNotExist","inputs":[]},{"type":"error","name":"LeafGreaterThanSnarkScalarField","inputs":[]},{"type":"error","name":"NoNewDelegations","inputs":[]},{"type":"error","name":"NotDelegated","inputs":[{"name":"tokenId","type":"uint256","internalType":"uint256"}]},{"type":"error","name":"NotTokenOwner","inputs":[{"name":"tokenId","type":"uint256","internalType":"uint256"}]},{"type":"error","name":"ProofRequired","inputs":[{"name":"account","type":"address","internalType":"address"}]},{"type":"error","name":"WeightOverflow","inputs":[]},{"type":"error","name":"WeightUnderflow","inputs":[]},{"type":"error","name":"WrongSiblingNodes","inputs":[]},{"type":"error","name":"ZeroAddress","inputs":[]}],"bytecode":{"object":"0x608060405234801561000f575f5ffd5b5060405161278738038061278783398101604081905261002e91610117565b80518061006e5760405162461bcd60e51b815260206004820152600a60248201526962616420636f6e66696760b01b604482015260640160405180910390fd5b5f5b818110156100e0575f8054600101815580528251839082908110610096576100966101e1565b60200260200101515f82815481106100b0576100b06101e1565b5f91825260209091200180546001600160a01b0319166001600160a01b0392909216919091179055600101610070565b5050506101f5565b634e487b7160e01b5f52604160045260245ffd5b80516001600160a01b0381168114610112575f5ffd5b919050565b5f60208284031215610127575f5ffd5b81516001600160401b0381111561013c575f5ffd5b8201601f8101841361014c575f5ffd5b80516001600160401b03811115610165576101656100e8565b604051600582901b90603f8201601f191681016001600160401b0381118282101715610193576101936100e8565b6040529182526020818401810192908101878411156101b0575f5ffd5b6020850194505b838510156101d6576101c8856100fc565b8152602094850194016101b7565b509695505050505050565b634e487b7160e01b5f52603260045260245ffd5b612585806102025f395ff3fe608060405234801561000f575f5ffd5b50600436106100cb575f3560e01c80638498be0411610088578063d0424d7c11610063578063d0424d7c14610210578063d4d1066114610223578063dd4bc10114610236578063fdbda0ec14610276575f5ffd5b80638498be04146101ba578063c1da8691146101da578063c333b0f1146101f0575f5ffd5b80631b1db502146100cf57806331cc13ba146100e457806341a382821461011b578063650e5fcf1461014857806366e12bef146101675780637b6c7c71146101a7575b5f5ffd5b6100e26100dd3660046120ab565b610289565b005b6100f76100f2366004612136565b6107f6565b604080516001600160581b0390931683526020830191909152015b60405180910390f35b61013a610129366004612151565b60076020525f908152604090205481565b604051908152602001610112565b61013a610156366004612151565b5f9081526007602052604090205490565b61018f610175366004612151565b60066020525f90815260409020546001600160a01b031681565b6040516001600160a01b039091168152602001610112565b61013a6101b5366004612136565b610829565b6101cd6101c8366004612168565b61085b565b60405161011291906121af565b6002545f9081526003602052604090205461013a565b6102036101fe366004612168565b6109ca565b60405161011291906121f1565b6100e261021e366004612231565b610aa2565b6100e2610231366004612231565b610b39565b61025e610244366004612136565b60056020525f90815260409020546001600160581b031681565b6040516001600160581b039091168152602001610112565b61018f610284366004612151565b610ba0565b61029285610bc7565b5f836001600160401b038111156102ab576102ab6122e8565b6040519080825280602002602001820160405280156102d4578160200160208202803683370190505b5090505f846001600160401b038111156102f0576102f06122e8565b604051908082528060200260200182016040528015610319578160200160208202803683370190505b5090505f856001600160401b03811115610335576103356122e8565b60405190808252806020026020018201604052801561036857816020015b60608152602001906001900390816103535790505b5090505f805b878110156103dd57876001600160401b0381111561038e5761038e6122e8565b6040519080825280602002602001820160405280156103b7578160200160208202803683370190505b508382815181106103ca576103ca6122fc565b602090810291909101015260010161036e565b505f5b878110156105c5575f8989838181106103fb576103fb6122fc565b90506020020135905061040f8b3383610beb565b61043457604051630e35d34560e11b8152600481018290526024015b60405180910390fd5b5f61043f8c83610c97565b5f818152600660205260409020549091506001600160a01b03168061047a576040516349a0267360e11b81526004810184905260240161042b565b5f82815260066020526040812080546001600160a01b03191690556104a0898784610cc3565b90505f19810361054057818987815181106104bd576104bd6122fc565b60200260200101906001600160a01b031690816001600160a01b031681525050838787815181106104f0576104f06122fc565b60200260200101515f81518110610509576105096122fc565b6020026020010181815250506001888781518110610529576105296122fc565b6020026020010181815250508560010195506105b6565b83878281518110610553576105536122fc565b602002602001015189838151811061056d5761056d6122fc565b602002602001015181518110610585576105856122fc565b6020026020010181815250508781815181106105a3576105a36122fc565b6020026020010180516001019081815250505b505050508060010190506103e0565b505f5b81811015610718575f8482815181106105e3576105e36122fc565b60200260200101516001600160401b03811115610602576106026122e8565b60405190808252806020026020018201604052801561062b578160200160208202803683370190505b5090505f5b858381518110610642576106426122fc565b60200260200101518110156106a957848381518110610663576106636122fc565b6020026020010151818151811061067c5761067c6122fc565b6020026020010151828281518110610696576106966122fc565b6020908102919091010152600101610630565b508a8683815181106106bd576106bd6122fc565b60200260200101516001600160a01b0316336001600160a01b03167f56017da320cb00880eb511a7183d19ed30ca4f9bcf6bf1dffa02ccb76da339158460405161070791906121af565b60405180910390a4506001016105c8565b505f5b818110156107e2575f858281518110610736576107366122fc565b602002602001015190505f61074c898984610d1a565b90505f19810361077a5760405163e0a76e8560e01b81526001600160a01b038316600482015260240161042b565b6107d882878581518110610790576107906122fc565b60200260200101516107a190612324565b8b8b858181106107b3576107b36122fc565b90506020028101906107c5919061233e565b6107d390602081019061235c565b610d7e565b505060010161071b565b506107eb610f6a565b505050505050505050565b6001600160a01b0381165f908152600560205260408120546001600160581b0316906108228383610fc2565b9050915091565b6001600160a01b0381165f908152600560205260408120546108559083906001600160581b0316610fc2565b92915050565b606061086684610bc7565b5f805b838110156108dc575f858583818110610884576108846122fc565b9050602002013590505f6108988883610c97565b5f818152600660205260409020549091506001600160a01b0316158015906108c657506108c6883384610beb565b156108d2578360010193505b5050600101610869565b505f816001600160401b038111156108f6576108f66122e8565b60405190808252806020026020018201604052801561091f578160200160208202803683370190505b5090505f805b858110156109bc575f878783818110610940576109406122fc565b9050602002013590505f6109548a83610c97565b5f818152600660205260409020549091506001600160a01b03161580159061098257506109828a3384610beb565b156109b257818585610993816123a1565b9650815181106109a5576109a56122fc565b6020026020010181815250505b5050600101610925565b5090925050505b9392505050565b60606109d584610bc7565b816001600160401b038111156109ed576109ed6122e8565b604051908082528060200260200182016040528015610a16578160200160208202803683370190505b5090505f5b82811015610a9a5760065f610a4887878786818110610a3c57610a3c6122fc565b90506020020135610c97565b81526020019081526020015f205f9054906101000a90046001600160a01b0316828281518110610a7a57610a7a6122fc565b6001600160a01b0390921660209283029190910190910152600101610a1b565b509392505050565b610aab87610bc7565b6001600160a01b038816610ad25760405163d92e233d60e01b815260040160405180910390fd5b5f5f5f5f610ae28c8c8c8c610fe1565b9350935093509350805f03610b0a5760405163fcea6b3560e01b815260040160405180910390fd5b610b178484848989611297565b610b238c828a8a610d7e565b610b2b610f6a565b505050505050505050505050565b610b4287610bc7565b6001600160a01b038816610b695760405163d92e233d60e01b815260040160405180910390fd5b5f5f5f5f610b798c8c8c8c611343565b9350935093509350610b8e8484848b8b61193c565b8015610b2b57610b238c828888610d7e565b5f8181548110610bae575f80fd5b5f918252602090912001546001600160a01b0316905081565b5f548110610be85760405163517172a160e11b815260040160405180910390fd5b50565b5f5f5f8581548110610bff57610bff6122fc565b5f9182526020918290206040805193840181529101546001600160a01b0390811680845291516331a9108f60e11b815260048101879052929350861691636352211e90602401602060405180830381865afa158015610c60573d5f5f3e3d5ffd5b505050506040513d601f19601f82011682018060405250810190610c8491906123b9565b6001600160a01b03161495945050505050565b604080516020808201949094528082019290925280518083038201815260609092019052805191012090565b5f805b83811015610d0f57826001600160a01b0316858281518110610cea57610cea6122fc565b60200260200101516001600160a01b031603610d075790506109c3565b600101610cc6565b505f19949350505050565b5f805b83811015610d0f57826001600160a01b0316858583818110610d4157610d416122fc565b9050602002810190610d53919061233e565b610d61906020810190612136565b6001600160a01b031603610d765790506109c3565b600101610d1d565b8215610f64576001600160a01b0384165f908152600560205260408120546001600160581b03169080851315610de3576001600160581b03808316860190811115610ddc57604051633643f37960e21b815260040160405180910390fd5b9050610e27565b5f610ded86612324565b9050826001600160581b0316811115610e1957604051637b1304a960e11b815260040160405180910390fd5b6001600160581b0383160390505b5f610e328784610fc2565b90505f610e3f8884610fc2565b90505f5160206125305f395f51905f5282101580610e6a57505f5160206125305f395f51905f528110155b15610e8857604051633643f37960e21b815260040160405180910390fd5b6001600160581b038416158015610ea757505f836001600160581b0316115b15610ebd57610eb76001826119bd565b50610eea565b826001600160581b03165f03610eda57610eb76001838888611b7c565b610ee8600183838989611b93565b505b6001600160a01b0388165f8181526005602090815260409182902080546affffffffffffffffffffff19166001600160581b0388811691821790925583519189168252918101919091527fee82339564ef9f72eccdbb67b46a62198422524ab9c7e3fcbdd194fa1b46461b910160405180910390a2505050505b50505050565b6002545f90815260036020908152604080832054808452600783529281902043908190558151908152905183927fac84e1f746682c16ccc7cac6060f24ba0d81b110e6dc4cfa95bbfae24a5fc07d928290030190a250565b6001600160581b031660589190911b600160581b600160f81b03161790565b6060805f80846001600160401b03811115610ffe57610ffe6122e8565b604051908082528060200260200182016040528015611027578160200160208202803683370190505b509350846001600160401b03811115611042576110426122e8565b60405190808252806020026020018201604052801561106b578160200160208202803683370190505b5092505f856001600160401b03811115611087576110876122e8565b6040519080825280602002602001820160405280156110b0578160200160208202803683370190505b5090505f5b868110156111a7575f8888838181106110d0576110d06122fc565b9050602002013590506110e48a3383610beb565b61110457604051630e35d34560e11b81526004810182905260240161042b565b5f61110f8b83610c97565b5f818152600660205260409020549091506001600160a01b0316801561114b5760405163391fac8f60e21b81526004810184905260240161042b565b5f82815260066020526040902080546001600160a01b0319166001600160a01b038f1617905584518390869088908110611187576111876122fc565b6020026020010181815250508560010195505050508060010190506110b5565b50811561128b575f826001600160401b038111156111c7576111c76122e8565b6040519080825280602002602001820160405280156111f0578160200160208202803683370190505b5090505f5b8381101561123c5782818151811061120f5761120f6122fc565b6020026020010151828281518110611229576112296122fc565b60209081029190910101526001016111f5565b50888a6001600160a01b0316336001600160a01b03167f3fe8c5ff8038f409c0e155c58dd77a1d041dc9654f80d372adac435fb5837c308460405161128191906121af565b60405180910390a4505b50945094509450949050565b5f5b8381101561133b575f8682815181106112b4576112b46122fc565b602002602001015190505f6112ca858584610d1a565b90505f1981036112f85760405163e0a76e8560e01b81526001600160a01b038316600482015260240161042b565b6113318288858151811061130e5761130e6122fc565b602002602001015161131f90612324565b8787858181106107b3576107b36122fc565b5050600101611299565b505050505050565b6060805f80846001600160401b03811115611360576113606122e8565b604051908082528060200260200182016040528015611389578160200160208202803683370190505b509350846001600160401b038111156113a4576113a46122e8565b6040519080825280602002602001820160405280156113cd578160200160208202803683370190505b5092505f856001600160401b038111156113e9576113e96122e8565b60405190808252806020026020018201604052801561141c57816020015b60608152602001906001900390816114075790505b5090505f866001600160401b03811115611438576114386122e8565b604051908082528060200260200182016040528015611461578160200160208202803683370190505b5090505f5b878110156114d557876001600160401b03811115611486576114866122e8565b6040519080825280602002602001820160405280156114af578160200160208202803683370190505b508382815181106114c2576114c26122fc565b6020908102919091010152600101611466565b505f5b878110156116f8575f8989838181106114f3576114f36122fc565b9050602002013590506115078b3383610beb565b61152757604051630e35d34560e11b81526004810182905260240161042b565b5f6115328c83610c97565b5f818152600660205260409020549091506001600160a01b03908116908e16810361155f575050506116f0565b6001600160a01b03811615611692575f61157a8b8a84610cc3565b90505f19810361161a57818b8a81518110611597576115976122fc565b60200260200101906001600160a01b031690816001600160a01b03168152505083878a815181106115ca576115ca6122fc565b60200260200101515f815181106115e3576115e36122fc565b60200260200101818152505060018a8a81518110611603576116036122fc565b602002602001018181525050886001019850611690565b8387828151811061162d5761162d6122fc565b60200260200101518b8381518110611647576116476122fc565b60200260200101518151811061165f5761165f6122fc565b60200260200101818152505089818151811061167d5761167d6122fc565b6020026020010180516001019081815250505b505b8d60065f8481526020019081526020015f205f6101000a8154816001600160a01b0302191690836001600160a01b03160217905550828588815181106116da576116da6122fc565b6020026020010181815250508660010196505050505b6001016114d8565b505f5b8481101561184b575f868281518110611716576117166122fc565b60200260200101516001600160401b03811115611735576117356122e8565b60405190808252806020026020018201604052801561175e578160200160208202803683370190505b5090505f5b878381518110611775576117756122fc565b60200260200101518110156117dc57848381518110611796576117966122fc565b602002602001015181815181106117af576117af6122fc565b60200260200101518282815181106117c9576117c96122fc565b6020908102919091010152600101611763565b508a8883815181106117f0576117f06122fc565b60200260200101516001600160a01b0316336001600160a01b03167f56017da320cb00880eb511a7183d19ed30ca4f9bcf6bf1dffa02ccb76da339158460405161183a91906121af565b60405180910390a4506001016116fb565b50821561192f575f836001600160401b0381111561186b5761186b6122e8565b604051908082528060200260200182016040528015611894578160200160208202803683370190505b5090505f5b848110156118e0578281815181106118b3576118b36122fc565b60200260200101518282815181106118cd576118cd6122fc565b6020908102919091010152600101611899565b50898b6001600160a01b0316336001600160a01b03167f3fe8c5ff8038f409c0e155c58dd77a1d041dc9654f80d372adac435fb5837c308460405161192591906121af565b60405180910390a4505b5050945094509450949050565b5f5b8381101561133b575f868281518110611959576119596122fc565b602002602001015190505f61196f858584610d1a565b90505f19810361199d5760405163e0a76e8560e01b81526001600160a01b038316600482015260240161042b565b6119b38288858151811061130e5761130e6122fc565b505060010161193e565b5f5f5160206125305f395f51905f5282106119eb576040516361c0541760e11b815260040160405180910390fd5b815f03611a0b576040516314b48df160e11b815260040160405180910390fd5b5f82815260038401602052604090205415611a39576040516312c50cad60e11b815260040160405180910390fd5b825460018085015490611a4d9083906123d4565b611a588260026124ca565b1015611a6a57611a67816123a1565b90505b60018501819055835f5b82811015611b42578084901c600116600103611b27576040805180820182525f83815260028a0160209081529083902054825281018490529051632b0aac7f60e11b815273__$a2daaad8940c9006af3f1557205ebe532d$__9163561558fe91611ae191906004016124d5565b602060405180830381865af4158015611afc573d5f5f3e3d5ffd5b505050506040513d601f19601f82011682018060405250810190611b209190612505565b9150611b3a565b5f81815260028801602052604090208290555b600101611a74565b50611b4c836123a1565b8087555f928352600287016020908152604080852084905596845260039097019096529390209390935550919050565b5f611b8a85855f8686611b93565b95945050505050565b5f5f5160206125305f395f51905f528410611bc1576040516361c0541760e11b815260040160405180910390fd5b5f858152600387016020526040902054611bee57604051631c811d5b60e21b815260040160405180910390fd5b5f84815260038701602052604090205415611c1c576040516312c50cad60e11b815260040160405180910390fd5b5f611c278787612019565b8754909150859087905f90611c3e9060019061251c565b60018b01549091505f90815b81811015611f94578087901c600116600103611df8575f5160206125305f395f51905f528a8a85818110611c8057611c806122fc565b9050602002013510611ca5576040516361c0541760e11b815260040160405180910390fd5b73__$a2daaad8940c9006af3f1557205ebe532d$__63561558fe60405180604001604052808d8d88818110611cdc57611cdc6122fc565b905060200201358152602001898152506040518263ffffffff1660e01b8152600401611d0891906124d5565b602060405180830381865af4158015611d23573d5f5f3e3d5ffd5b505050506040513d601f19601f82011682018060405250810190611d479190612505565b955073__$a2daaad8940c9006af3f1557205ebe532d$__63561558fe60405180604001604052808d8d88818110611d8057611d806122fc565b905060200201358152602001888152506040518263ffffffff1660e01b8152600401611dac91906124d5565b602060405180830381865af4158015611dc7573d5f5f3e3d5ffd5b505050506040513d601f19601f82011682018060405250810190611deb9190612505565b9450826001019250611f8c565b86811c84821c14611f79575f5160206125305f395f51905f528a8a85818110611e2357611e236122fc565b9050602002013510611e48576040516361c0541760e11b815260040160405180910390fd5b5f81815260028e016020526040902054859003611e72575f81815260028e01602052604090208690555b73__$a2daaad8940c9006af3f1557205ebe532d$__63561558fe60405180604001604052808981526020018d8d88818110611eaf57611eaf6122fc565b905060200201358152506040518263ffffffff1660e01b8152600401611ed591906124d5565b602060405180830381865af4158015611ef0573d5f5f3e3d5ffd5b505050506040513d601f19601f82011682018060405250810190611f149190612505565b955073__$a2daaad8940c9006af3f1557205ebe532d$__63561558fe60405180604001604052808881526020018d8d88818110611f5357611f536122fc565b905060200201358152506040518263ffffffff1660e01b8152600401611dac91906124d5565b5f81815260028e01602052604090208690555b600101611c4a565b5060018c01545f90815260028d0160205260409020548414611fc957604051631fd4986360e11b815260040160405180910390fd5b5f81815260028d01602052604090208590558915611ff9575f8b815260038d016020526040808220548c83529120555b5050505f88815260038a0160205260408120555091505095945050505050565b5f818152600383016020526040812054810361204857604051631c811d5b60e21b815260040160405180910390fd5b5f8281526003840160205260409020546109c39060019061251c565b5f5f83601f840112612074575f5ffd5b5081356001600160401b0381111561208a575f5ffd5b6020830191508360208260051b85010111156120a4575f5ffd5b9250929050565b5f5f5f5f5f606086880312156120bf575f5ffd5b8535945060208601356001600160401b038111156120db575f5ffd5b6120e788828901612064565b90955093505060408601356001600160401b03811115612105575f5ffd5b61211188828901612064565b969995985093965092949392505050565b6001600160a01b0381168114610be8575f5ffd5b5f60208284031215612146575f5ffd5b81356109c381612122565b5f60208284031215612161575f5ffd5b5035919050565b5f5f5f6040848603121561217a575f5ffd5b8335925060208401356001600160401b03811115612196575f5ffd5b6121a286828701612064565b9497909650939450505050565b602080825282518282018190525f918401906040840190835b818110156121e65783518352602093840193909201916001016121c8565b509095945050505050565b602080825282518282018190525f918401906040840190835b818110156121e65783516001600160a01b031683526020938401939092019160010161220a565b5f5f5f5f5f5f5f5f60a0898b031215612248575f5ffd5b883561225381612122565b97506020890135965060408901356001600160401b03811115612274575f5ffd5b6122808b828c01612064565b90975095505060608901356001600160401b0381111561229e575f5ffd5b6122aa8b828c01612064565b90955093505060808901356001600160401b038111156122c8575f5ffd5b6122d48b828c01612064565b999c989b5096995094979396929594505050565b634e487b7160e01b5f52604160045260245ffd5b634e487b7160e01b5f52603260045260245ffd5b634e487b7160e01b5f52601160045260245ffd5b5f600160ff1b820161233857612338612310565b505f0390565b5f8235603e19833603018112612352575f5ffd5b9190910192915050565b5f5f8335601e19843603018112612371575f5ffd5b8301803591506001600160401b0382111561238a575f5ffd5b6020019150600581901b36038213156120a4575f5ffd5b5f600182016123b2576123b2612310565b5060010190565b5f602082840312156123c9575f5ffd5b81516109c381612122565b8082018082111561085557610855612310565b6001815b60018411156124225780850481111561240657612406612310565b600184161561241457908102905b60019390931c9280026123eb565b935093915050565b5f8261243857506001610855565b8161244457505f610855565b816001811461245a576002811461246457612480565b6001915050610855565b60ff84111561247557612475612310565b50506001821b610855565b5060208310610133831016604e8410600b84101617156124a3575081810a610855565b6124af5f1984846123e7565b805f19048211156124c2576124c2612310565b029392505050565b5f6109c3838361242a565b6040810181835f5b60028110156124fc5781518352602092830192909101906001016124dd565b50505092915050565b5f60208284031215612515575f5ffd5b5051919050565b818103818111156108555761085561231056fe30644e72e131a029b85045b68181585d2833e84879b9709143e1f593f0000001a264697066735822122078dd73060305184f3e7eb143cc97f8e699162746c56cd9c79b9ff20ea2064d0f64736f6c634300081e0033","linkReferences":{"lib/poseidon-solidity/contracts/PoseidonT3.sol":{"PoseidonT3":[{"start":7356,"length":20},{"start":7849,"length":20},{"start":8013,"length":20},{"start":8310,"length":20},{"start":8474,"length":20}]}}},"methodIdentifiers":{"collections(uint256)":"fdbda0ec","computeLeaf(address)":"7b6c7c71","delegate(address,uint256,uint256[],uint256[],(address,uint256[])[])":"d0424d7c","getCensusRoot()":"c1da8691","getDelegations(address)":"31cc13ba","getNFTids(uint256,uint256[])":"8498be04","getRootBlockNumber(uint256)":"650e5fcf","getTokenDelegations(uint256,uint256[])":"c333b0f1","rootBlockNumbers(uint256)":"41a38282","tokenDelegate(bytes32)":"66e12bef","undelegate(uint256,uint256[],(address,uint256[])[])":"1b1db502","updateDelegation(address,uint256,uint256[],(address,uint256[])[],uint256[])":"d4d10661","weightOf(address)":"dd4bc101"},"id":38}