{"abi":[{"type":"constructor","inputs":[],"stateMutability":"nonpayable"},{"type":"function","name":"AUTHORS","inputs":[],"outputs":[{"name":"","type":"string","internalType":"string"}],"stateMutability":"view"},{"type":"function","name":"DATE","inputs":[],"outputs":[{"name":"","type":"string","internalType":"string"}],"stateMutability":"view"},{"type":"function","name":"MANIFESTO","inputs":[],"outputs":[{"name":"","type":"string","internalType":"string"}],"stateMutability":"view"},{"type":"function","name":"TITLE","inputs":[],"outputs":[{"name":"","type":"string","internalType":"string"}],"stateMutability":"view"},{"type":"function","name":"computeLeaf","inputs":[{"name":"account","type":"address","internalType":"address"}],"outputs":[{"name":"","type":"uint256","internalType":"uint256"}],"stateMutability":"pure"},{"type":"function","name":"getCensusRoot","inputs":[],"outputs":[{"name":"","type":"uint256","internalType":"uint256"}],"stateMutability":"view"},{"type":"function","name":"getRootBlockNumber","inputs":[{"name":"root","type":"uint256","internalType":"uint256"}],"outputs":[{"name":"blockNumber","type":"uint256","internalType":"uint256"}],"stateMutability":"view"},{"type":"function","name":"hasPledged","inputs":[{"name":"who","type":"address","internalType":"address"}],"outputs":[{"name":"","type":"bool","internalType":"bool"}],"stateMutability":"view"},{"type":"function","name":"pledge","inputs":[],"outputs":[],"stateMutability":"nonpayable"},{"type":"function","name":"pledgeCount","inputs":[],"outputs":[{"name":"","type":"uint256","internalType":"uint256"}],"stateMutability":"view"},{"type":"function","name":"pledgeTimestamp","inputs":[{"name":"","type":"address","internalType":"address"}],"outputs":[{"name":"","type":"uint256","internalType":"uint256"}],"stateMutability":"view"},{"type":"function","name":"pledgedBefore","inputs":[{"name":"who","type":"address","internalType":"address"},{"name":"cutoff","type":"uint256","internalType":"uint256"}],"outputs":[{"name":"","type":"bool","internalType":"bool"}],"stateMutability":"view"},{"type":"event","name":"CensusRootUpdated","inputs":[{"name":"newRoot","type":"uint256","indexed":true,"internalType":"uint256"},{"name":"blockNumber","type":"uint256","indexed":false,"internalType":"uint256"}],"anonymous":false},{"type":"event","name":"Pledged","inputs":[{"name":"signer","type":"address","indexed":true,"internalType":"address"},{"name":"timestamp","type":"uint256","indexed":false,"internalType":"uint256"}],"anonymous":false},{"type":"error","name":"AlreadyPledged","inputs":[]},{"type":"error","name":"InvalidBufferSize","inputs":[]},{"type":"error","name":"LeafAlreadyExists","inputs":[]},{"type":"error","name":"LeafCannotBeZero","inputs":[]},{"type":"error","name":"LeafGreaterThanSnarkScalarField","inputs":[]}],"bytecode":{"object":"0x6080604052348015600e575f5ffd5b50601960066064601d565b604e565b805f03603c57604051630c01a34b60e41b815260040160405180910390fd5b5f8255604a60018301829055565b5050565b610fdb8061005b5f395ff3fe608060405234801561000f575f5ffd5b50600436106100b1575f3560e01c80639b3523801161006e5780639b3523801461018c578063ba3ec7411461019f578063c1da8691146101d4578063c6d6c183146101ea578063e4861bdd146101f3578063e56388911461021c575f5ffd5b80630a8f0b3e146100b55780632b7a8feb146100e7578063650e5fcf146101215780637b6c7c711461014a5780637ef838041461016d57806388ffe86714610182575b5f5ffd5b6100d46100c3366004610664565b5f6020819052908152604090205481565b6040519081526020015b60405180910390f35b6101116100f5366004610664565b6001600160a01b03165f90815260208190526040902054151590565b60405190151581526020016100de565b6100d461012f366004610684565b5f9081526008602052604090205467ffffffffffffffff1690565b6100d4610158366004610664565b60581b600160581b600160f81b031660011790565b610175610224565b6040516100de919061069b565b61018a610240565b005b61011161019a3660046106d0565b61034c565b61017560405180604001604052806016815260200175444156494e43492e766f746520436f6d6d756e69747960501b81525081565b6003545f908152600460205260409020546100d4565b6100d460015481565b6101756040518060400160405280600a815260200169323032352d31312d313560b01b81525081565b61017561037d565b60405180606001604052806039815260200161088c6039913981565b335f908152602081905260409020541561026d5760405163b0ca2ff560e01b815260040160405180910390fd5b335f908152602081905260408120429055600180549161028c8361070c565b909155505060013360581b177f30644e72e131a029b85045b68181585d2833e84879b9709143e1f593f000000181106103005760405162461bcd60e51b8152602060048201526012602482015271496e76616c6964206c6561662076616c756560701b604482015260640160405180910390fd5b61030b60028261039c565b5061031461056e565b60405142815233907f2726ce6e3b7987cbbb10c5a55b44725526c540fbba590cfc20afab691fa45edf9060200160405180910390a250565b6001600160a01b0382165f9081526020819052604081205480158015906103735750828111155b9150505b92915050565b6040518061072001604052806106e181526020016108c56106e1913981565b5f7f30644e72e131a029b85045b68181585d2833e84879b9709143e1f593f000000182106103dd576040516361c0541760e11b815260040160405180910390fd5b815f036103fd576040516314b48df160e11b815260040160405180910390fd5b5f8281526003840160205260409020541561042b576040516312c50cad60e11b815260040160405180910390fd5b82546001808501549061043f908390610724565b61044a82600261081a565b101561045c576104598161070c565b90505b60018501819055835f5b82811015610534578084901c600116600103610519576040805180820182525f83815260028a0160209081529083902054825281018490529051632b0aac7f60e11b815273__$a2daaad8940c9006af3f1557205ebe532d$__9163561558fe916104d39190600401610825565b602060405180830381865af41580156104ee573d5f5f3e3d5ffd5b505050506040513d601f19601f820116820180604052508101906105129190610855565b915061052c565b5f81815260028801602052604090208290555b600101610466565b5061053e8361070c565b8087555f928352600287016020908152604080852084905596845260039097019096529390209390935550919050565b6003545f908152600460205260409020548061058b6006826105f2565b5f81815260086020908152604091829020805467ffffffffffffffff19164367ffffffffffffffff811691909117909155915191825283917fac84e1f746682c16ccc7cac6060f24ba0d81b110e6dc4cfa95bbfae24a5fc07d910160405180910390a25050565b81545f9083826106018361070c565b9091555060018401805491925083906106239061061e848661086c565b61062a565b5550505050565b5f8261037361064684610642845f9081526020902090565b0190565b90565b80356001600160a01b038116811461065f575f5ffd5b919050565b5f60208284031215610674575f5ffd5b61067d82610649565b9392505050565b5f60208284031215610694575f5ffd5b5035919050565b602081525f82518060208401528060208501604085015e5f604082850101526040601f19601f83011684010191505092915050565b5f5f604083850312156106e1575f5ffd5b6106ea83610649565b946020939093013593505050565b634e487b7160e01b5f52601160045260245ffd5b5f6001820161071d5761071d6106f8565b5060010190565b80820180821115610377576103776106f8565b6001815b600184111561077257808504811115610756576107566106f8565b600184161561076457908102905b60019390931c92800261073b565b935093915050565b5f8261078857506001610377565b8161079457505f610377565b81600181146107aa57600281146107b4576107d0565b6001915050610377565b60ff8411156107c5576107c56106f8565b50506001821b610377565b5060208310610133831016604e8410600b84101617156107f3575081810a610377565b6107ff5f198484610737565b805f1904821115610812576108126106f8565b029392505050565b5f61067d838361077a565b6040810181835f5b600281101561084c57815183526020928301929091019060010161082d565b50505092915050565b5f60208284031215610865575f5ffd5b5051919050565b5f8261088657634e487b7160e01b5f52601260045260245ffd5b50069056fe576520417265204e6f7420537065637461746f72733a2041204d616e69666573746f20666f7220436f6c6c6563746976652046726565646f6d2320576520417265204e6f7420537065637461746f72733a2041204d616e69666573746f20666f7220436f6c6c6563746976652046726565646f6d0a0a576520776572652070726f6d697365642064656d6f63726163792e0a0a5768617420776520676f7420776173207065726d697373696f6e2e0a0a5065726d697373696f6e20746f2063686f6f7365206265747765656e206f7074696f6e73207765206469646e2774206372656174652e0a0a5065726d697373696f6e20746f20737065616b206f6e6c79207768656e2073706f6b656e20746f2e0a0a5065726d697373696f6e20746f20657869737420696e736964652073797374656d73206275696c7420746f20636f6e7461696e2075732e0a0a5468657920746f6c642075732074686973207761732066726565646f6d2e0a0a4275742066726565646f6d20776974686f7574206167656e637920697320746865617465722e0a0a5765207363726f6c6c2e20576520766f74652e205765207369676e207065746974696f6e732e0a0a416e64207374696c6c2c2074686520776f726c64206275726e732c20696e657175616c6974792067726f77732c20616e6420747275737420636f6c6c61707365732e0a0a54686520746872656164732074686174206f6e63652068656c6420757320746f676574686572206172652074656172696e672061706172742e0a0a2a2a456e6f7567682e2a2a0a0a57652072656675736520746f20626520737065637461746f727320746f206f7572206f776e206675747572652e0a0a57652072656675736520746f206d697374616b6520726570726573656e746174696f6e20666f722070617274696369706174696f6e2e0a0a5468652073797374656d732074686174206661696c656420757320617265206e6f7420746865206f6e6c79206f6e6573207765206861766520746f206c6976652062792e0a0a46726565646f6d20626567696e7320776974682070617274696369706174696f6e2c206e6f74206f62656469656e63652e0a0a45766572792068756d616e206465736572766573206120766f69636520696e207468652073797374656d73207468657920646570656e64206f6e2c0a0a74686520706c6174666f726d732074686579207573652c2074686520706f6c69636965732074686174207368617065207468656d2c0a0a746865206675747572652074686579276c6c20696e68657269742e0a0a2a2a57652062656c696576652070726976616379206973206e6f74206120666561747572652c2069742773206120666f756e646174696f6e2e2a2a0a0a54686520726967687420746f2065786973742c207468696e6b2c20616e6420636f6e6e65637420776974686f7574207375727665696c6c616e63652e0a0a50726976616379206973207468652073706163652077686572652064697373656e742c20637265617469766974792c20616e642064656d6f63726163792061726520626f726e2e0a0a2a2a57652062656c6965766520617574686f72697479206d757374206265206163636f756e7461626c652c20616e6420706f776572207472616e73706172656e742e2a2a0a0a476f7665726e616e6365206973206e6f7420736f6d657468696e6720646f6e6520746f2075733b206974277320736f6d657468696e6720776520646f2c20746f6765746865722e0a0a2a2a57652062656c6965766520746563686e6f6c6f6779206973206120746f6f6c2c206e6f742061206d61737465722e2a2a0a0a4c696b65206c616e67756167652c206974206d7573742062656c6f6e6720746f2065766572796f6e652c0a0a61207075626c696320676f6f6420746f206275696c642074727573742c206e6f7420657874726163742069742e0a0a57652062656c6965766520696e2073656c662d736f7665726569676e20696e6672617374727563747572652c0a0a7472616e73706172656e63792061732074727574682c0a0a616e6420636f6c6c61626f726174696f6e20617320737472656e6774682e0a0a2a2a57652061726520746865206275696c64657273206f662074686520636f6d6d6f6e732e2a2a0a0a54686520636974697a656e732077686f2072656675736520746f20626520737065637461746f72732e0a0a54686520647265616d6572732077686f207475726e206672757374726174696f6e20696e746f20696e76656e74696f6e2e0a0a54686520636f6d6d756e69746965732077686f207475726e20696465617320696e746f20616374696f6e2e0a0a2a2a426563617573652074686520667574757265207765206c69766520696e20646570656e6473206f6e2074686520676f7665726e616e6365207765206163686965766520746f6461792e2a2a0a0a2a2a2357654172654e6f74537065637461746f72732a2aa264697066735822122067ff83c2758e18182d149b72ea6aa57c56c67d208bb4e420deca420e816943b964736f6c634300081e0033","linkReferences":{"lib/poseidon-solidity/contracts/PoseidonT3.sol":{"PoseidonT3":[{"start":1287,"length":20}]}}},"methodIdentifiers":{"AUTHORS()":"ba3ec741","DATE()":"e4861bdd","MANIFESTO()":"e5638891","TITLE()":"7ef83804","computeLeaf(address)":"7b6c7c71","getCensusRoot()":"c1da8691","getRootBlockNumber(uint256)":"650e5fcf","hasPledged(address)":"2b7a8feb","pledge()":"88ffe867","pledgeCount()":"c6d6c183","pledgeTimestamp(address)":"0a8f0b3e","pledgedBefore(address,uint256)":"9b352380"},"id":32}