{"abi":[{"type":"constructor","inputs":[{"name":"tokens","type":"address[]","internalType":"address[]"}],"stateMutability":"nonpayable"},{"type":"function","name":"collections","inputs":[{"name":"","type":"uint256","internalType":"uint256"}],"outputs":[{"name":"token","type":"address","internalType":"address"}],"stateMutability":"view"},{"type":"function","name":"computeLeafWithWeight","inputs":[{"name":"account","type":"address","internalType":"address"},{"name":"weight","type":"uint88","internalType":"uint88"}],"outputs":[{"name":"leaf","type":"uint256","internalType":"uint256"}],"stateMutability":"pure"},{"type":"function","name":"delegate","inputs":[{"name":"to","type":"address","internalType":"address"},{"name":"nftIndex","type":"uint256","internalType":"uint256"},{"name":"ids","type":"uint256[]","internalType":"uint256[]"},{"name":"currentWeightOfTo","type":"uint88","internalType":"uint88"},{"name":"toProof","type":"uint256[]","internalType":"uint256[]"},{"name":"fromProofs","type":"tuple[]","internalType":"struct DavinciDao.ProofInput[]","components":[{"name":"account","type":"address","internalType":"address"},{"name":"currentWeight","type":"uint88","internalType":"uint88"},{"name":"siblings","type":"uint256[]","internalType":"uint256[]"}]}],"outputs":[],"stateMutability":"nonpayable"},{"type":"function","name":"getCensusRoot","inputs":[],"outputs":[{"name":"","type":"uint256","internalType":"uint256"}],"stateMutability":"view"},{"type":"function","name":"getNFTids","inputs":[{"name":"nftIndex","type":"uint256","internalType":"uint256"},{"name":"candidateIds","type":"uint256[]","internalType":"uint256[]"}],"outputs":[{"name":"","type":"uint256[]","internalType":"uint256[]"}],"stateMutability":"view"},{"type":"function","name":"getRootBlockNumber","inputs":[{"name":"root","type":"uint256","internalType":"uint256"}],"outputs":[{"name":"","type":"uint256","internalType":"uint256"}],"stateMutability":"view"},{"type":"function","name":"getTokenDelegations","inputs":[{"name":"nftIndex","type":"uint256","internalType":"uint256"},{"name":"ids","type":"uint256[]","internalType":"uint256[]"}],"outputs":[{"name":"delegates","type":"address[]","internalType":"address[]"}],"stateMutability":"view"},{"type":"function","name":"rootBlockNumbers","inputs":[{"name":"","type":"uint256","internalType":"uint256"}],"outputs":[{"name":"","type":"uint256","internalType":"uint256"}],"stateMutability":"view"},{"type":"function","name":"tokenDelegate","inputs":[{"name":"","type":"bytes32","internalType":"bytes32"}],"outputs":[{"name":"","type":"address","internalType":"address"}],"stateMutability":"view"},{"type":"function","name":"undelegate","inputs":[{"name":"nftIndex","type":"uint256","internalType":"uint256"},{"name":"ids","type":"uint256[]","internalType":"uint256[]"},{"name":"proofs","type":"tuple[]","internalType":"struct DavinciDao.ProofInput[]","components":[{"name":"account","type":"address","internalType":"address"},{"name":"currentWeight","type":"uint88","internalType":"uint88"},{"name":"siblings","type":"uint256[]","internalType":"uint256[]"}]}],"outputs":[],"stateMutability":"nonpayable"},{"type":"function","name":"updateDelegation","inputs":[{"name":"to","type":"address","internalType":"address"},{"name":"nftIndex","type":"uint256","internalType":"uint256"},{"name":"ids","type":"uint256[]","internalType":"uint256[]"},{"name":"currentWeightOfTo","type":"uint88","internalType":"uint88"},{"name":"fromProofs","type":"tuple[]","internalType":"struct DavinciDao.ProofInput[]","components":[{"name":"account","type":"address","internalType":"address"},{"name":"currentWeight","type":"uint88","internalType":"uint88"},{"name":"siblings","type":"uint256[]","internalType":"uint256[]"}]},{"name":"toProof","type":"uint256[]","internalType":"uint256[]"}],"outputs":[],"stateMutability":"nonpayable"},{"type":"event","name":"CensusRootUpdated","inputs":[{"name":"newRoot","type":"uint256","indexed":true,"internalType":"uint256"},{"name":"blockNumber","type":"uint256","indexed":false,"internalType":"uint256"}],"anonymous":false},{"type":"event","name":"Delegated","inputs":[{"name":"owner","type":"address","indexed":true,"internalType":"address"},{"name":"to","type":"address","indexed":true,"internalType":"address"},{"name":"nftIndex","type":"uint256","indexed":true,"internalType":"uint256"},{"name":"tokenId","type":"uint256","indexed":false,"internalType":"uint256"}],"anonymous":false},{"type":"event","name":"DelegatedBatch","inputs":[{"name":"owner","type":"address","indexed":true,"internalType":"address"},{"name":"to","type":"address","indexed":true,"internalType":"address"},{"name":"nftIndex","type":"uint256","indexed":true,"internalType":"uint256"},{"name":"tokenIds","type":"uint256[]","indexed":false,"internalType":"uint256[]"}],"anonymous":false},{"type":"event","name":"Undelegated","inputs":[{"name":"owner","type":"address","indexed":true,"internalType":"address"},{"name":"from","type":"address","indexed":true,"internalType":"address"},{"name":"nftIndex","type":"uint256","indexed":true,"internalType":"uint256"},{"name":"tokenId","type":"uint256","indexed":false,"internalType":"uint256"}],"anonymous":false},{"type":"event","name":"UndelegatedBatch","inputs":[{"name":"owner","type":"address","indexed":true,"internalType":"address"},{"name":"from","type":"address","indexed":true,"internalType":"address"},{"name":"nftIndex","type":"uint256","indexed":true,"internalType":"uint256"},{"name":"tokenIds","type":"uint256[]","indexed":false,"internalType":"uint256[]"}],"anonymous":false},{"type":"event","name":"WeightChanged","inputs":[{"name":"account","type":"address","indexed":true,"internalType":"address"},{"name":"previousWeight","type":"uint88","indexed":false,"internalType":"uint88"},{"name":"newWeight","type":"uint88","indexed":false,"internalType":"uint88"}],"anonymous":false},{"type":"error","name":"AlreadyDelegated","inputs":[{"name":"tokenId","type":"uint256","internalType":"uint256"}]},{"type":"error","name":"InvalidCollection","inputs":[]},{"type":"error","name":"InvalidTokenId","inputs":[{"name":"tokenId","type":"uint256","internalType":"uint256"}]},{"type":"error","name":"LeafAlreadyExists","inputs":[]},{"type":"error","name":"LeafCannotBeZero","inputs":[]},{"type":"error","name":"LeafDoesNotExist","inputs":[]},{"type":"error","name":"LeafGreaterThanSnarkScalarField","inputs":[]},{"type":"error","name":"NoNewDelegations","inputs":[]},{"type":"error","name":"NotDelegated","inputs":[{"name":"tokenId","type":"uint256","internalType":"uint256"}]},{"type":"error","name":"NotTokenOwner","inputs":[{"name":"tokenId","type":"uint256","internalType":"uint256"}]},{"type":"error","name":"ProofRequired","inputs":[{"name":"account","type":"address","internalType":"address"}]},{"type":"error","name":"WeightOverflow","inputs":[]},{"type":"error","name":"WeightUnderflow","inputs":[]},{"type":"error","name":"WrongSiblingNodes","inputs":[]},{"type":"error","name":"ZeroAddress","inputs":[]}],"bytecode":{"object":"0x608060405234801561000f575f5ffd5b5060405161273838038061273883398101604081905261002e91610117565b80518061006e5760405162461bcd60e51b815260206004820152600a60248201526962616420636f6e66696760b01b604482015260640160405180910390fd5b5f5b818110156100e0575f8054600101815580528251839082908110610096576100966101e1565b60200260200101515f82815481106100b0576100b06101e1565b5f91825260209091200180546001600160a01b0319166001600160a01b0392909216919091179055600101610070565b5050506101f5565b634e487b7160e01b5f52604160045260245ffd5b80516001600160a01b0381168114610112575f5ffd5b919050565b5f60208284031215610127575f5ffd5b81516001600160401b0381111561013c575f5ffd5b8201601f8101841361014c575f5ffd5b80516001600160401b03811115610165576101656100e8565b604051600582901b90603f8201601f191681016001600160401b0381118282101715610193576101936100e8565b6040529182526020818401810192908101878411156101b0575f5ffd5b6020850194505b838510156101d6576101c8856100fc565b8152602094850194016101b7565b509695505050505050565b634e487b7160e01b5f52603260045260245ffd5b612536806102025f395ff3fe608060405234801561000f575f5ffd5b50600436106100a6575f3560e01c80638498be041161006e5780638498be041461016357806389e8a25514610183578063c1da869114610196578063c333b0f1146101ac578063e2bc69f4146101cc578063fdbda0ec146101df575f5ffd5b8063340ae1cd146100aa57806341a38282146100bf578063650e5fcf146100f157806366e12bef1461011057806370e3afa214610150575b5f5ffd5b6100bd6100b8366004612011565b6101f2565b005b6100de6100cd3660046120db565b60066020525f908152604090205481565b6040519081526020015b60405180910390f35b6100de6100ff3660046120db565b5f9081526006602052604090205490565b61013861011e3660046120db565b60056020525f90815260409020546001600160a01b031681565b6040516001600160a01b0390911681526020016100e8565b6100bd61015e366004612011565b61028b565b6101766101713660046120f2565b6102f3565b6040516100e89190612139565b6100de61019136600461217b565b610462565b6002545f908152600360205260409020546100de565b6101bf6101ba3660046120f2565b61046d565b6040516100e891906121ae565b6100bd6101da3660046121ee565b610545565b6101386101ed3660046120db565b610ae7565b6101fb88610b0e565b6001600160a01b0389166102225760405163d92e233d60e01b815260040160405180910390fd5b5f5f5f5f6102328d8d8d8d610b32565b9350935093509350805f0361025a5760405163fcea6b3560e01b815260040160405180910390fd5b6102678484848989610de8565b6102748d828b8b8b610ec9565b61027c61106d565b50505050505050505050505050565b61029488610b0e565b6001600160a01b0389166102bb5760405163d92e233d60e01b815260040160405180910390fd5b5f5f5f5f6102cb8d8d8d8d6110c5565b93509350935093506102e08484848b8b6116be565b801561027c576102748d828b8989610ec9565b60606102fe84610b0e565b5f805b83811015610374575f85858381811061031c5761031c612265565b9050602002013590505f610330888361173f565b5f818152600560205260409020549091506001600160a01b03161580159061035e575061035e88338461176e565b1561036a578360010193505b5050600101610301565b505f816001600160401b0381111561038e5761038e612279565b6040519080825280602002602001820160405280156103b7578160200160208202803683370190505b5090505f805b85811015610454575f8787838181106103d8576103d8612265565b9050602002013590505f6103ec8a8361173f565b5f818152600560205260409020549091506001600160a01b03161580159061041a575061041a8a338461176e565b1561044a5781858561042b816122a1565b96508151811061043d5761043d612265565b6020026020010181815250505b50506001016103bd565b5090925050505b9392505050565b5f61045b838361181a565b606061047884610b0e565b816001600160401b0381111561049057610490612279565b6040519080825280602002602001820160405280156104b9578160200160208202803683370190505b5090505f5b8281101561053d5760055f6104eb878787868181106104df576104df612265565b9050602002013561173f565b81526020019081526020015f205f9054906101000a90046001600160a01b031682828151811061051d5761051d612265565b6001600160a01b03909216602092830291909101909101526001016104be565b509392505050565b61054e85610b0e565b5f836001600160401b0381111561056757610567612279565b604051908082528060200260200182016040528015610590578160200160208202803683370190505b5090505f846001600160401b038111156105ac576105ac612279565b6040519080825280602002602001820160405280156105d5578160200160208202803683370190505b5090505f856001600160401b038111156105f1576105f1612279565b60405190808252806020026020018201604052801561062457816020015b606081526020019060019003908161060f5790505b5090505f805b8781101561069957876001600160401b0381111561064a5761064a612279565b604051908082528060200260200182016040528015610673578160200160208202803683370190505b5083828151811061068657610686612265565b602090810291909101015260010161062a565b505f5b87811015610881575f8989838181106106b7576106b7612265565b9050602002013590506106cb8b338361176e565b6106f057604051630e35d34560e11b8152600481018290526024015b60405180910390fd5b5f6106fb8c8361173f565b5f818152600560205260409020549091506001600160a01b031680610736576040516349a0267360e11b8152600481018490526024016106e7565b5f82815260056020526040812080546001600160a01b031916905561075c898784611839565b90505f1981036107fc578189878151811061077957610779612265565b60200260200101906001600160a01b031690816001600160a01b031681525050838787815181106107ac576107ac612265565b60200260200101515f815181106107c5576107c5612265565b60200260200101818152505060018887815181106107e5576107e5612265565b602002602001018181525050856001019550610872565b8387828151811061080f5761080f612265565b602002602001015189838151811061082957610829612265565b60200260200101518151811061084157610841612265565b60200260200101818152505087818151811061085f5761085f612265565b6020026020010180516001019081815250505b5050505080600101905061069c565b505f5b818110156109d4575f84828151811061089f5761089f612265565b60200260200101516001600160401b038111156108be576108be612279565b6040519080825280602002602001820160405280156108e7578160200160208202803683370190505b5090505f5b8583815181106108fe576108fe612265565b60200260200101518110156109655784838151811061091f5761091f612265565b6020026020010151818151811061093857610938612265565b602002602001015182828151811061095257610952612265565b60209081029190910101526001016108ec565b508a86838151811061097957610979612265565b60200260200101516001600160a01b0316336001600160a01b03167f56017da320cb00880eb511a7183d19ed30ca4f9bcf6bf1dffa02ccb76da33915846040516109c39190612139565b60405180910390a450600101610884565b505f5b81811015610ad3575f8582815181106109f2576109f2612265565b602002602001015190505f610a08898984611890565b90505f198103610a365760405163e0a76e8560e01b81526001600160a01b03831660048201526024016106e7565b610ac982878581518110610a4c57610a4c612265565b6020026020010151610a5d906122b9565b8b8b85818110610a6f57610a6f612265565b9050602002810190610a8191906122d3565b610a929060408101906020016122f1565b8c8c86818110610aa457610aa4612265565b9050602002810190610ab691906122d3565b610ac490604081019061230a565b610ec9565b50506001016109d7565b50610adc61106d565b505050505050505050565b5f8181548110610af5575f80fd5b5f918252602090912001546001600160a01b0316905081565b5f548110610b2f5760405163517172a160e11b815260040160405180910390fd5b50565b6060805f80846001600160401b03811115610b4f57610b4f612279565b604051908082528060200260200182016040528015610b78578160200160208202803683370190505b509350846001600160401b03811115610b9357610b93612279565b604051908082528060200260200182016040528015610bbc578160200160208202803683370190505b5092505f856001600160401b03811115610bd857610bd8612279565b604051908082528060200260200182016040528015610c01578160200160208202803683370190505b5090505f5b86811015610cf8575f888883818110610c2157610c21612265565b905060200201359050610c358a338361176e565b610c5557604051630e35d34560e11b8152600481018290526024016106e7565b5f610c608b8361173f565b5f818152600560205260409020549091506001600160a01b03168015610c9c5760405163391fac8f60e21b8152600481018490526024016106e7565b5f82815260056020526040902080546001600160a01b0319166001600160a01b038f1617905584518390869088908110610cd857610cd8612265565b602002602001018181525050856001019550505050806001019050610c06565b508115610ddc575f826001600160401b03811115610d1857610d18612279565b604051908082528060200260200182016040528015610d41578160200160208202803683370190505b5090505f5b83811015610d8d57828181518110610d6057610d60612265565b6020026020010151828281518110610d7a57610d7a612265565b6020908102919091010152600101610d46565b50888a6001600160a01b0316336001600160a01b03167f3fe8c5ff8038f409c0e155c58dd77a1d041dc9654f80d372adac435fb5837c3084604051610dd29190612139565b60405180910390a4505b50945094509450949050565b5f5b83811015610ec1575f868281518110610e0557610e05612265565b602002602001015190505f610e1b858584611890565b90505f198103610e495760405163e0a76e8560e01b81526001600160a01b03831660048201526024016106e7565b610eb782888581518110610e5f57610e5f612265565b6020026020010151610e70906122b9565b878785818110610e8257610e82612265565b9050602002810190610e9491906122d3565b610ea59060408101906020016122f1565b888886818110610aa457610aa4612265565b5050600101610dea565b505050505050565b8315611066575f5f851315610f0d576001600160581b03808516860190811115610f0657604051633643f37960e21b815260040160405180910390fd5b9050610f51565b5f610f17866122b9565b9050846001600160581b0316811115610f4357604051637b1304a960e11b815260040160405180910390fd5b6001600160581b0385160390505b5f610f5c878661181a565b90505f610f69888461181a565b90505f5160206124e15f395f51905f5282101580610f9457505f5160206124e15f395f51905f528110155b15610fb257604051633643f37960e21b815260040160405180910390fd5b6001600160581b038616158015610fd157505f836001600160581b0316115b15610fe757610fe16001826118f4565b50611014565b826001600160581b03165f0361100457610fe16001838787611ab3565b611012600183838888611aca565b505b604080516001600160581b038089168252851660208201526001600160a01b038a16917fee82339564ef9f72eccdbb67b46a62198422524ab9c7e3fcbdd194fa1b46461b910160405180910390a25050505b5050505050565b6002545f90815260036020908152604080832054808452600683529281902043908190558151908152905183927fac84e1f746682c16ccc7cac6060f24ba0d81b110e6dc4cfa95bbfae24a5fc07d928290030190a250565b6060805f80846001600160401b038111156110e2576110e2612279565b60405190808252806020026020018201604052801561110b578160200160208202803683370190505b509350846001600160401b0381111561112657611126612279565b60405190808252806020026020018201604052801561114f578160200160208202803683370190505b5092505f856001600160401b0381111561116b5761116b612279565b60405190808252806020026020018201604052801561119e57816020015b60608152602001906001900390816111895790505b5090505f866001600160401b038111156111ba576111ba612279565b6040519080825280602002602001820160405280156111e3578160200160208202803683370190505b5090505f5b8781101561125757876001600160401b0381111561120857611208612279565b604051908082528060200260200182016040528015611231578160200160208202803683370190505b5083828151811061124457611244612265565b60209081029190910101526001016111e8565b505f5b8781101561147a575f89898381811061127557611275612265565b9050602002013590506112898b338361176e565b6112a957604051630e35d34560e11b8152600481018290526024016106e7565b5f6112b48c8361173f565b5f818152600560205260409020549091506001600160a01b03908116908e1681036112e157505050611472565b6001600160a01b03811615611414575f6112fc8b8a84611839565b90505f19810361139c57818b8a8151811061131957611319612265565b60200260200101906001600160a01b031690816001600160a01b03168152505083878a8151811061134c5761134c612265565b60200260200101515f8151811061136557611365612265565b60200260200101818152505060018a8a8151811061138557611385612265565b602002602001018181525050886001019850611412565b838782815181106113af576113af612265565b60200260200101518b83815181106113c9576113c9612265565b6020026020010151815181106113e1576113e1612265565b6020026020010181815250508981815181106113ff576113ff612265565b6020026020010180516001019081815250505b505b8d60055f8481526020019081526020015f205f6101000a8154816001600160a01b0302191690836001600160a01b031602179055508285888151811061145c5761145c612265565b6020026020010181815250508660010196505050505b60010161125a565b505f5b848110156115cd575f86828151811061149857611498612265565b60200260200101516001600160401b038111156114b7576114b7612279565b6040519080825280602002602001820160405280156114e0578160200160208202803683370190505b5090505f5b8783815181106114f7576114f7612265565b602002602001015181101561155e5784838151811061151857611518612265565b6020026020010151818151811061153157611531612265565b602002602001015182828151811061154b5761154b612265565b60209081029190910101526001016114e5565b508a88838151811061157257611572612265565b60200260200101516001600160a01b0316336001600160a01b03167f56017da320cb00880eb511a7183d19ed30ca4f9bcf6bf1dffa02ccb76da33915846040516115bc9190612139565b60405180910390a45060010161147d565b5082156116b1575f836001600160401b038111156115ed576115ed612279565b604051908082528060200260200182016040528015611616578160200160208202803683370190505b5090505f5b848110156116625782818151811061163557611635612265565b602002602001015182828151811061164f5761164f612265565b602090810291909101015260010161161b565b50898b6001600160a01b0316336001600160a01b03167f3fe8c5ff8038f409c0e155c58dd77a1d041dc9654f80d372adac435fb5837c30846040516116a79190612139565b60405180910390a4505b5050945094509450949050565b5f5b83811015610ec1575f8682815181106116db576116db612265565b602002602001015190505f6116f1858584611890565b90505f19810361171f5760405163e0a76e8560e01b81526001600160a01b03831660048201526024016106e7565b61173582888581518110610e5f57610e5f612265565b50506001016116c0565b604080516020808201859052818301849052825180830384018152606090920190925280519101205b92915050565b5f5f5f858154811061178257611782612265565b5f9182526020918290206040805193840181529101546001600160a01b0390811680845291516331a9108f60e11b815260048101879052929350861691636352211e90602401602060405180830381865afa1580156117e3573d5f5f3e3d5ffd5b505050506040513d601f19601f82011682018060405250810190611807919061234f565b6001600160a01b03161495945050505050565b6001600160581b031660589190911b600160581b600160f81b03161790565b5f805b8381101561188557826001600160a01b031685828151811061186057611860612265565b60200260200101516001600160a01b03160361187d57905061045b565b60010161183c565b505f19949350505050565b5f805b8381101561188557826001600160a01b03168585838181106118b7576118b7612265565b90506020028101906118c991906122d3565b6118d790602081019061236a565b6001600160a01b0316036118ec57905061045b565b600101611893565b5f5f5160206124e15f395f51905f528210611922576040516361c0541760e11b815260040160405180910390fd5b815f03611942576040516314b48df160e11b815260040160405180910390fd5b5f82815260038401602052604090205415611970576040516312c50cad60e11b815260040160405180910390fd5b825460018085015490611984908390612385565b61198f82600261247b565b10156119a15761199e816122a1565b90505b60018501819055835f5b82811015611a79578084901c600116600103611a5e576040805180820182525f83815260028a0160209081529083902054825281018490529051632b0aac7f60e11b815273__$a2daaad8940c9006af3f1557205ebe532d$__9163561558fe91611a189190600401612486565b602060405180830381865af4158015611a33573d5f5f3e3d5ffd5b505050506040513d601f19601f82011682018060405250810190611a5791906124b6565b9150611a71565b5f81815260028801602052604090208290555b6001016119ab565b50611a83836122a1565b8087555f928352600287016020908152604080852084905596845260039097019096529390209390935550919050565b5f611ac185855f8686611aca565b95945050505050565b5f5f5160206124e15f395f51905f528410611af8576040516361c0541760e11b815260040160405180910390fd5b5f858152600387016020526040902054611b2557604051631c811d5b60e21b815260040160405180910390fd5b5f84815260038701602052604090205415611b53576040516312c50cad60e11b815260040160405180910390fd5b5f611b5e8787611f50565b8754909150859087905f90611b75906001906124cd565b60018b01549091505f90815b81811015611ecb578087901c600116600103611d2f575f5160206124e15f395f51905f528a8a85818110611bb757611bb7612265565b9050602002013510611bdc576040516361c0541760e11b815260040160405180910390fd5b73__$a2daaad8940c9006af3f1557205ebe532d$__63561558fe60405180604001604052808d8d88818110611c1357611c13612265565b905060200201358152602001898152506040518263ffffffff1660e01b8152600401611c3f9190612486565b602060405180830381865af4158015611c5a573d5f5f3e3d5ffd5b505050506040513d601f19601f82011682018060405250810190611c7e91906124b6565b955073__$a2daaad8940c9006af3f1557205ebe532d$__63561558fe60405180604001604052808d8d88818110611cb757611cb7612265565b905060200201358152602001888152506040518263ffffffff1660e01b8152600401611ce39190612486565b602060405180830381865af4158015611cfe573d5f5f3e3d5ffd5b505050506040513d601f19601f82011682018060405250810190611d2291906124b6565b9450826001019250611ec3565b86811c84821c14611eb0575f5160206124e15f395f51905f528a8a85818110611d5a57611d5a612265565b9050602002013510611d7f576040516361c0541760e11b815260040160405180910390fd5b5f81815260028e016020526040902054859003611da9575f81815260028e01602052604090208690555b73__$a2daaad8940c9006af3f1557205ebe532d$__63561558fe60405180604001604052808981526020018d8d88818110611de657611de6612265565b905060200201358152506040518263ffffffff1660e01b8152600401611e0c9190612486565b602060405180830381865af4158015611e27573d5f5f3e3d5ffd5b505050506040513d601f19601f82011682018060405250810190611e4b91906124b6565b955073__$a2daaad8940c9006af3f1557205ebe532d$__63561558fe60405180604001604052808881526020018d8d88818110611e8a57611e8a612265565b905060200201358152506040518263ffffffff1660e01b8152600401611ce39190612486565b5f81815260028e01602052604090208690555b600101611b81565b5060018c01545f90815260028d0160205260409020548414611f0057604051631fd4986360e11b815260040160405180910390fd5b5f81815260028d01602052604090208590558915611f30575f8b815260038d016020526040808220548c83529120555b5050505f88815260038a0160205260408120555091505095945050505050565b5f8181526003830160205260408120548103611f7f57604051631c811d5b60e21b815260040160405180910390fd5b5f82815260038401602052604090205461045b906001906124cd565b6001600160a01b0381168114610b2f575f5ffd5b5f5f83601f840112611fbf575f5ffd5b5081356001600160401b03811115611fd5575f5ffd5b6020830191508360208260051b8501011115611fef575f5ffd5b9250929050565b80356001600160581b038116811461200c575f5ffd5b919050565b5f5f5f5f5f5f5f5f5f60c08a8c031215612029575f5ffd5b893561203481611f9b565b985060208a0135975060408a01356001600160401b03811115612055575f5ffd5b6120618c828d01611faf565b9098509650612074905060608b01611ff6565b945060808a01356001600160401b0381111561208e575f5ffd5b61209a8c828d01611faf565b90955093505060a08a01356001600160401b038111156120b8575f5ffd5b6120c48c828d01611faf565b915080935050809150509295985092959850929598565b5f602082840312156120eb575f5ffd5b5035919050565b5f5f5f60408486031215612104575f5ffd5b8335925060208401356001600160401b03811115612120575f5ffd5b61212c86828701611faf565b9497909650939450505050565b602080825282518282018190525f918401906040840190835b81811015612170578351835260209384019390920191600101612152565b509095945050505050565b5f5f6040838503121561218c575f5ffd5b823561219781611f9b565b91506121a560208401611ff6565b90509250929050565b602080825282518282018190525f918401906040840190835b818110156121705783516001600160a01b03168352602093840193909201916001016121c7565b5f5f5f5f5f60608688031215612202575f5ffd5b8535945060208601356001600160401b0381111561221e575f5ffd5b61222a88828901611faf565b90955093505060408601356001600160401b03811115612248575f5ffd5b61225488828901611faf565b969995985093965092949392505050565b634e487b7160e01b5f52603260045260245ffd5b634e487b7160e01b5f52604160045260245ffd5b634e487b7160e01b5f52601160045260245ffd5b5f600182016122b2576122b261228d565b5060010190565b5f600160ff1b82016122cd576122cd61228d565b505f0390565b5f8235605e198336030181126122e7575f5ffd5b9190910192915050565b5f60208284031215612301575f5ffd5b61045b82611ff6565b5f5f8335601e1984360301811261231f575f5ffd5b8301803591506001600160401b03821115612338575f5ffd5b6020019150600581901b3603821315611fef575f5ffd5b5f6020828403121561235f575f5ffd5b815161045b81611f9b565b5f6020828403121561237a575f5ffd5b813561045b81611f9b565b808201808211156117685761176861228d565b6001815b60018411156123d3578085048111156123b7576123b761228d565b60018416156123c557908102905b60019390931c92800261239c565b935093915050565b5f826123e957506001611768565b816123f557505f611768565b816001811461240b576002811461241557612431565b6001915050611768565b60ff8411156124265761242661228d565b50506001821b611768565b5060208310610133831016604e8410600b8410161715612454575081810a611768565b6124605f198484612398565b805f19048211156124735761247361228d565b029392505050565b5f61045b83836123db565b6040810181835f5b60028110156124ad57815183526020928301929091019060010161248e565b50505092915050565b5f602082840312156124c6575f5ffd5b5051919050565b818103818111156117685761176861228d56fe30644e72e131a029b85045b68181585d2833e84879b9709143e1f593f0000001a2646970667358221220321bf2bd412a1acddce0642e7d7d7f9faa46cdb6d5fdf5eef57d339128cf097964736f6c634300081e0033","linkReferences":{"lib/poseidon-solidity/contracts/PoseidonT3.sol":{"PoseidonT3":[{"start":7155,"length":20},{"start":7648,"length":20},{"start":7812,"length":20},{"start":8109,"length":20},{"start":8273,"length":20}]}}},"methodIdentifiers":{"collections(uint256)":"fdbda0ec","computeLeafWithWeight(address,uint88)":"89e8a255","delegate(address,uint256,uint256[],uint88,uint256[],(address,uint88,uint256[])[])":"340ae1cd","getCensusRoot()":"c1da8691","getNFTids(uint256,uint256[])":"8498be04","getRootBlockNumber(uint256)":"650e5fcf","getTokenDelegations(uint256,uint256[])":"c333b0f1","rootBlockNumbers(uint256)":"41a38282","tokenDelegate(bytes32)":"66e12bef","undelegate(uint256,uint256[],(address,uint88,uint256[])[])":"e2bc69f4","updateDelegation(address,uint256,uint256[],uint88,(address,uint88,uint256[])[],uint256[])":"70e3afa2"},"id":38}